:020000040800F2
:100000000005002049010008C718000889130008EE
:10001000C518000857020008AB1A000800000000CD
:10002000000000000000000000000000CB180008E5
:100030005902000800000000C9180008CD18000887
:100040006301000863010008630100086301000800
:1000500063010008630100086301000863010008F0
:1000600063010008630100086301000863010008E0
:1000700063010008630100086301000863010008D0
:1000800063010008630100086301000863010008C0
:1000900063010008630100086301000863010008B0
:1000A00063010008630100086301000863010008A0
:1000B0006301000863010008630100086301000890
:1000C0006301000863010008630100086301000880
:1000D0006301000863010008630100086301000870
:1000E0006301000863010008630100086301000860
:1000F0006301000863010008630100086301000850
:10010000630100086301000863010008630100083F
:10011000630100086301000863010008630100082F
:10012000630100086301000863010008630100081F
:10013000DFF810D000F06EF8004800479522000864
:10014000AFF30080000500200648804706480047BE
:10015000FEE7FEE7FEE7FEE7FEE7FEE7FEE7FEE777
:10016000FEE7FEE72F19000831010008202A04DB12
:10017000203A21FA02F00021704721FA02F3D04020
:10018000C2F120029140084319467047D2B201E003
:1001900000F8012B491EFBD270470022F6E710B58C
:1001A00013460A4604461946FFF7F0FF204610BDE5
:1001B0002DE9F05F0546002092469B46884606469C
:1001C000814640241BE02846414647462246FFF729
:1001D000CDFF53465A46C01A914110D311461846D6
:1001E000224600F029F82D1A67EB01084F462246F7
:1001F0000120002100F020F817EB00094E41201EDD
:10020000A4F10104DFDC484631462A464346BDE8F6
:10021000F09F0000064C074D06E0E06840F0010347
:1002200094E8070098471034AC42F6D3FFF784FFF8
:10023000F423000814240008202A04DB203A00FAE2
:1002400002F1002070479140C2F1200320FA03F32D
:10025000194390407047FEE7704772B6FEE7000012
:1002600070B5044600F0B0F90546601C02D00448A1
:100270000078044400F0A8F9401BA042FAD370BDF6
:10028000080000202DE9F0430023454F0F2581E0B1
:1002900001229A400A407BD023F00304E619D6F8E5
:1002A00008809C074FEA147C05FA0CF909EA080457
:1002B000DFF8F080404502D14FF0000824E0DFF87D
:1002C000E880404502D14FF001081DE0DFF8DC80F6
:1002D000404502D14FF0020816E0DFF8D4804045D7
:1002E00002D14FF003080FE0DFF8C880404502D18B
:1002F0004FF0040808E0DFF8C080404502D14FF01D
:10030000050801E04FF0060808FA0CF8A04522D1D4
:100310002A4CD4F800C02CEA020CC4F800C0241DFA
:10032000D4F800C02CEA020CC4F800C0234C0C34F2
:10033000D4F800C02CEA020CC4F800C0241FD4F882
:1003400000C02CEA020CC4F800C0D6F808C02CEAA1
:10035000090CC6F808C0FF2A01D8064601E000F1E2
:1003600004064FEA830401D9A4F12004D6F800C0A2
:1003700005FA04F82CEA080C4FF0040808FA04F80F
:100380004CEA080CC6F800C0C46824EA0204C46041
:1003900003F1010331FA03F27FF47AAFBDE8F08391
:1003A0000000014000080140000C01400010014025
:1003B0000014014000180140001C014000040140ED
:1003C0002DE9F84FDFF8C8910024A9F1040B23466A
:1003D0000F2709F1040AABF1040ED1E00125A54075
:1003E00006EA0502AA4276D1DFF8A8C14E68A6EB5C
:1003F0000C0866452BD00DDC032E34D005DC36B35B
:10040000012E19D0022E2FD11BE0112E16D0122E44
:100410002AD119E0B8F5881F19D006DCB8F5803F5D
:1004200015D0B8F5801F1FD111E0B8F5001F0ED010
:10043000B8F5041F18D10AE0CB6815E0CB681B1D86
:1004400012E0CB6808330FE0CB680C330CE08B680C
:100450002BB1012B4FF0080303D0456104E00423C6
:1004600002E0056100E00023FF2A01D8064601E012
:1004700000F104064FEA840501D9A5F12005D6F85C
:10048000008007FA05FC28EA0C0803FA05F548EA9B
:100490000508C6F800804D68ED0070D53E4DAE6988
:1004A00046F00106AE61AD6924F0030605F00105D2
:1004B00000953A4D06EB050CDCF80850A607360F00
:1004C00007FA06F825EA0805DFF8D480404503D18D
:1004D0004FF0000825E052E0DFF8C880404502D127
:1004E0004FF001081DE0DFF8C080404502D14FF019
:1004F000020816E0DFF8B480404502D14FF003084F
:100500000FE0DFF8AC80404502D14FF0040808E06E
:10051000DFF8A080404502D14FF0050801E04FF020
:10052000060808FA06F848EA0508CCF808804D687D
:10053000D9F80060ED024D4601D5164300E0964320
:100540002E604D68DAF80060AD02554601D51643BD
:1005500000E096432E604D68DBF80060AD035D4619
:1005600001D5164300E096432E604D68DEF800602A
:10057000ED03754601D5164300E096432E60641CDA
:100580000A681646E2407FF429AFBDE8F88F000004
:10059000080401400000111000100240000001405A
:1005A00000080140000C014000100140001401400F
:1005B00000180140001C0140C26821EA02030A4001
:1005C00043EA0241016170470148806870470000BA
:1005D0000800002010B5040013D0242084F83D004A
:1005E0002068016821F001010160204600F098FABE
:1005F0000020206484F83D0044F8300FA07320737D
:1006000010BD012010BD90F83D00704770B504008A
:1006100025D094F83D00002520B984F83C502046B0
:1006200000F09AFA242084F83D002068016821F047
:10063000010101602068016841F400410160206807
:10064000016821F40041016000F0D4FB4D4A61686B
:10065000914201D84C4900E04C49884201D2012026
:1006600070BD4B492368B0FBF1F15E6826F03F0690
:100670000E435E606368934206D94FF49673594304
:100680004FF47A73B1FBF3F12368491C1E6A26F01C
:100690003F06314319626168914210D84900401EFB
:1006A000B0FBF1F2521CC2F30B02042A01D2042067
:1006B00022E0B0FBF1F0401CC0F30B001CE0A2688C
:1006C000F2B301EBC10303EB0116431EB3FBF6F3D8
:1006D0005B1C43F480431B0549D092B301EBC1027C
:1006E00002EB0111401EB0FBF1F0401CC0F30B0007
:1006F00040F4804040F400402168CA694CF6FF7322
:100700009A431043C861D4E9071001432068026886
:1007100022F0C00211430160D4E9030101432068C3
:10072000826848F2FF339A4311438160D4E905019E
:1007300008432168CA6822F0FF021043C86001E044
:100740000EE016E02068016841F0010101602564B7
:10075000202084F83D00256384F83E50002070BDC1
:1007600001EB4106431EB3FBF6F35B1CB3E701202C
:10077000C2E701EB4101401EB0FBF1F0401CC0F3A9
:100780000B00B7E7A086010080841E0000093D0031
:1007900040420F002DE9FF4F83B00025DDE91079BD
:1007A0009A4693460446DDF848800095FFF70CFF13
:1007B000064694F83D0020287CD11923012288495F
:1007C0002046009600F0F6FE0028F5D194F83C0093
:1007D00001286FD0012084F83C0020680168C90717
:1007E00003D1016841F0010101602068016821F432
:1007F00000610160222084F83D00402084F83E0022
:1008000025646762A4F82A90608D20857548E062AF
:10081000CDE9008653465A462046049900F0CCFDA7
:1008200000287CD1208DDFF8C091202768B10128F5
:1008300014D00228206801681ED041F48061016054
:100840002068416980690090BCE020684169816945
:100850000091016841F400710160B3E02068016813
:1008600021F48061016072B620684169816900915C
:10087000016841F400710AE041F40061016072B660
:100880002068416981690091016821F480610160FB
:1008900062B697E0032865D801280CD002284346A9
:1008A0004FF000024946204600960BD000F082FE31
:1008B000A8BB0CE091E032464146204600F020FF04
:1008C00068BB72E000F076FE48BB72B633E0206889
:1008D000016821F48061016072B620680069616A74
:1008E0000870606A401C6062208D401E2085608D0B
:1008F000401E60853D4846F2A8110068B0FBF1F04B
:10090000C0EBC00000EB80000090401E009007D0BC
:1009100020684069C04340070DD50098F5E727E0FF
:1009200044F8305F6773A573206940F020002061B0
:1009300062B625731CE02068016841F40071016013
:1009400020680069616A0870606A401C6062218DDD
:10095000491E2185618D491E618562B6216809693C
:10096000017026E032464146204600F0C9FE18B12B
:10097000012007B0BDE8F08F20680069616A087047
:10098000606A401C6062208D401E81B22185608DAE
:10099000401E608520684269D243520712D4032961
:1009A00003D1016821F48061016020680069616AF7
:1009B0000870606A401C6062208D401E2085608D3A
:1009C000401E6085208D00287FF464AF84F83D7060
:1009D00084F83E5084F83C50CBE70220C9E7000081
:1009E000020010000000FFFF0400010014000020BE
:1009F0002DE9FF4F83B09A46DDE9119793460446EF
:100A0000DDF84080FFF7E0FD054694F83D00202822
:100A10007FD11923012240492046009500F0CAFDEC
:100A2000002876D194F83C00012872D0012084F887
:100A30003C0020680168C90703D1016841F0010149
:100A400001602068016821F400610160212084F8C0
:100A50003D00402084F83E0000262664C4F824802F
:100A6000A4F82A90608D20852C48E062CDE90075BD
:100A700053465A462046049900F01CFD70B930E0F8
:100A80002A463946204600F073FE58B1206C0428EF
:100A900004D12068016841F400710160012007B0B1
:100AA000BDE8F08F606A216800780861606A401CC8
:100AB0006062218D491E89B22185628D521E628538
:100AC00022685369DB435B070BD469B1007810617E
:100AD000606A401C6062208D401E2085608D401E33
:100AE0006085208D0028CBD12A463946204600F06B
:100AF00035FD0028CAD154F83D0B016841F400715E
:100B00000160202004F81E09E67766770020C6E71A
:100B1000FFE70220C3E70000020010000000FFFF13
:100B200010B50068094988420FD10948C16921F40C
:100B30000011C161074C40212046FFF7A3FB20466E
:100B4000BDE810408021FFF79DBB10BD0054004060
:100B500000100240000C014010B586B00021009149
:100B600001910291039100680F4988421AD10F4CFC
:100B7000A06940F00800A061A069694600F0080083
:100B80000490C02000901220019003200390084898
:100B9000FFF716FCE06940F40010E061E06900F442
:100BA0000010049006B010BD005400400010024038
:100BB000000C01400248816802781144816070474E
:100BC00008000020074810B5016841F010010160DD
:100BD000032000F067F80F2000F006F800F024F87A
:100BE000002010BD0020024070B50D4D04464FF4AA
:100BF0007A712878B1FBF0F00A490968B1FBF0F08E
:100C000000F0CEFA48B9102C07D200222146501E1F
:100C100000F028F800206C6070BD012070BD00005D
:100C200008000020140000200C4808B5816941F03C
:100C300001018161816901F001010091C16941F007
:100C40008051C161C06900F0805000900448416843
:100C500021F0E06141F08061416008BD0010024078
:100C600000000140F0B40E4B1B680C46C3F3022396
:100C7000C3F10705042D00D90425191D072901D248
:100C8000002300E0DB1E012606FA05F1491E214083
:100C900099409E40761E16403143F0BC01F0A2B848
:100CA0000CED00E0064900F0070208684FF6FF036C
:100CB000184040EA0220034A1043086070470000D1
:100CC0000CED00E00000FA052DE9F0470F460500A5
:100CD00061D0434E306800F00700B84209D2306856
:100CE00020F0070038433060306800F00700B84259
:100CF00051D128683B4C810712D5400703D5606865
:100D000040F4E06060602878000703D5606840F434
:100D1000605060606068A96820F0F000084360607F
:100D20002878C00728D06868012810D021680228D8
:100D300010D0890700292EDA616821F003010143F0
:100D40006160FFF741FC804641F288390DE021687F
:100D50008903EFE78901EDE7FFF736FCA0EB080117
:100D6000494502D90320BDE8F0876068696800F052
:100D70000C00B0EB810FEFD1306800F00700B842F3
:100D80000BD9306820F0070038433060306800F03D
:100D90000700B84201D00120E5E72878400705D5D3
:100DA0006068E96820F4E060084360602878000724
:100DB00006D56068296920F4605040EAC10060608F
:100DC00000F038F86168084AC1F30311515CC8406B
:100DD0000649086006480068FFF706FF0020C2E7E2
:100DE0000020024000100240DA2300081400002016
:100DF0000C0000200448054900684968044AC1F312
:100E00000221515CC84070471400002000100240CD
:100E1000EA2300080448054900684968044AC1F308
:100E2000C221515CC84070471400002000100240ED
:100E3000EA2300080E4A51680E4801F00C03042B07
:100E400011D0082B0FD10C48C1F38343C903C05CF8
:100E50000AD55168084AC1F34041921E515C054AC7
:100E60005043B0FBF1F0704704494843704700001D
:100E70000010024000127A00CA23000800093D0059
:100E80002DE9F84F040070D02078C04DC00749D03C
:100E90006868C0F38100012807D06868C0F381004A
:100EA000022809D16868C00306D52868800339D5AF
:100EB00060680028E7D035E06068B0F5803F0BD06F
:100EC00010B1B0F5A02F11D0286820F48030286030
:100ED000286820F4802002E0286840F480302860F0
:100EE000606890B1FFF770FB06460AE0286840F49E
:100EF00080202860F0E700BFFFF766FB801B6428B6
:100F000073D828688003F7D50CE0FFF75DFB064631
:100F100005E000BFFFF758FB801B6428F0D8286865
:100F20008003F7D420789A4E80074FF001094FF0E4
:100F3000000839D5686810F00C0F07D06868C0F356
:100F40008100022809D16868C00306D42868800798
:100F500014D52069012808D110E02069B0B1C6F885
:100F60000090FFF731FB074605E00AE1FFF72CFB95
:100F7000C01B0228C4D828688007F7D52868616993
:100F800020F0F80040EAC10028600DE0C6F80080BB
:100F9000FFF71AFB074604E0FFF716FBC01B022809
:100FA00023D828688007F7D4207800072CD5794803
:100FB000A169D9B1C0F80090FFF706FB074604E02D
:100FC000FFF702FBC01B02280FD8686A8007F7D51D
:100FD00071484FF4FA510068B0FBF1F0009000BF87
:100FE0000098411E0091FAD20EE080E0C0F8008027
:100FF000FFF7EAFA074604E0FFF7E6FAC01B02280B
:1010000075D8686A8007F7D42078400760D5E8690A
:101010000027C00008D4E86940F08050E861E86922
:10102000012700F0805000905C480168C90513D486
:101030000168834641F480710160FFF7C5FA82467A
:1010400006E000BFFFF7C0FAA0EB0A0064284ED804
:10105000DBF80000C005F5D5E06801280AD008B12A
:10106000052813D0286A20F001002862286A20F0A1
:10107000040002E0286A40F001002862E06841F2C2
:10108000883B98B1FFF7A0FA82460BE0286A40F04F
:1010900004002862EEE700BFFFF796FAA0EB0A0112
:1010A00059455AD8286A8007F6D50CE0FFF78CFA24
:1010B000824605E0FFF788FAA0EB0A0159454CD8B3
:1010C000286A8007F6D41FB1E86920F08050E861F3
:1010D000E06988B36968C1F38101022944D002281C
:1010E000C6F8608004D0FFF76FFA044638E034E0B9
:1010F000FFF76AFA074604E0FFF766FAC01B02280A
:101100002BD828688001F7D4206AB0F5803F05D13C
:101110006868A16820F4003008436860D4E90801D9
:101120000843696821F4741108436860C6F8609048
:10113000FFF74AFA044606E025E000BFFFF744FA4D
:10114000001B022809D828688001F7D51BE000BFE2
:10115000FFF73AFA001B022802D90320BDE8F88FF6
:1011600028688001F4D40EE00128F7D06868226A6C
:1011700000F48031914204D1616A00F47010884219
:1011800001D00120EAE70020E8E70000001002405B
:1011900000004242800442421400002000700040DF
:1011A00010B5401EB0F1807F01D3012010BD4FF07B
:1011B000E02460610F21601700F014FE0020A061A0
:1011C00007202061002010BD70B5040004D094F801
:1011D0004100002510B106E0012070BD84F84050A8
:1011E000204600F023F8242084F841002068C168DC
:1011F00021F40051C160204600F0C2FB2068016963
:1012000021F4904101612068416921F02A01416186
:101210002068C16841F40051C1606564202084F8F1
:10122000410084F842006563002070BD70B586B04F
:101230000024009401940294039403682648254EE8
:10124000022103220515B3421ED1836943F4804372
:101250008361836903F480430493836943F0040347
:10126000836180691D4E00F0040004900802CDE9FE
:101270000001039269463046FFF7A2F8CDE9005419
:1012800069463046029420E0154EB3421FD1C3692F
:1012900043F48023C361C36903F480230493836907
:1012A00043F0080383618069CDE9005100F0080034
:1012B000CDE903200B4D69462846FFF781F8E81475
:1012C000CDE90004694628460294FFF779F806B094
:1012D00070BD0000003801400010024000080140CD
:1012E00000480040000C01402DE9F843044690F806
:1012F0004100984616460D46202802D00220BDE83F
:10130000F88385B17EB100206064212084F841001B
:10131000FFF75AF9A6848146E684A0682027B0F535
:10132000805F02D003E00120E9E7206910B12E467A
:1013300000250EE000260CE08021204600F07CFB1A
:10134000A8B9C6B116F8010B21684860E08C401EB0
:10135000E084E08C4B464FF00002CDF8008000287E
:10136000EAD14FF04001204600F066FB40B184F81E
:1013700041700320C3E735F8020BC0F30800E3E730
:1013800084F841700020BAE7FEE701684A69D24359
:1013900052050FD46FF480624A61002140F8301F7B
:1013A000202242738173026942F0040202610173D8
:1013B00001207047002070472DE9F84F044600686F
:1013C00089460B9D01689846174641F4806101608B
:1013D0002068016841F48071016000954FF0011BA5
:1013E0000022594620460A9B00F0E4F84FF4007AA8
:1013F00040B120680068C00501D5C4F840A00320B2
:10140000BDE8F88F216809F0FE0008612B462849E5
:1014100020460A9A00F016F9F0BB206841698069FD
:1014200000902A4620460A9900F0A2F940B1206CAB
:1014300004283AD12068016841F40071016034E069
:10144000FEB2B8F1010F09D02168380A08612A46B6
:1014500020460A9900F08CF90028E8D1206806613E
:101460002A4620460A9900F083F90028DFD1206837
:10147000016841F4807101600095002259462046C0
:101480000A9B00F097F80028B3D1216809F0FF000B
:1014900040F00100086100E007E02B4604492046C7
:1014A0000A9A00F0CFF80028AAD00120A8E700008F
:1014B000020001002DE9F843044600680D46DDE90D
:1014C000089701689846164641F4807101604B46C2
:1014D00000224FF001112046009700F06BF848B150
:1014E00020680068C00502D54FF400702064032016
:1014F000BDE8F883216805F0FE0008613B464A46D6
:101500001549204600F09EF888B920684169806935
:1015100000903A464946204600F02AF948B1206C2E
:10152000042804D12068016841F4007101600120A1
:10153000DEE7F5B2B8F1010F09D02168300A086181
:101540003A464946204600F013F90028E7D12068C2
:1015500005610020CCE700000200010070B51646CE
:101560000D4604461EE02046FFF70FFF08B101209C
:1015700070BD681C16D0FFF727F8801BA84200D862
:1015800085B920684069C04340070BD5002044F866
:10159000300F20216173A073216941F02001216186
:1015A0002073E4E720684069C0434007DBD4002093
:1015B00070BD00002DE9F047984617460D460446D9
:1015C000C1F30746DDF820902AE000BFB8F1FF3FE5
:1015D00026D0FEF7F9FFA0EB0901414502D8B8F18A
:1015E000000F1DD12068012E16D0806925EA000069
:1015F0000004000C12D00020B84211D1002044F8A1
:10160000300F20216173A073216941F02001216115
:1016100020730120BDE8F0874069E7E70120EBE790
:101620002068012E0AD0806925EA00000004000C21
:1016300006D00020B842C9D00020EBE74069F3E7AC
:101640000120F7E72DE9F047984616460D46044677
:101650004FF000094FF0200AC1F3074723E020684C
:101660004069C043400515D42068016841F4007109
:10167000016021686FF480604861C4F8309084F89C
:101680003DA084F83E90216C41F00401216484F86F
:101690003C9021E0701C06D0FEF796FFA0EB0800FE
:1016A000B04203D816B1012F1FD021E02068012FCE
:1016B00015D0806925EA00000004000C18D000BF96
:1016C00044F8309F84F80DA084F80E90216941F011
:1016D0002001216184F80C900120BDE8F087406969
:1016E00025EA00000004000CEAD12068406901E00E
:1016F0002068806925EA00000004000CAFD1ECE707
:101700002DE9F041002590460E460446202728E0AA
:101710004069C043C0060CD454F8301B6FF0100071
:10172000486144F810596777A577206A20622577C9
:1017300014E0FEF749FFA0EB0800B04200D886B9DC
:1017400020684069C04340060BD544F8305F67739A
:10175000A573206940F02000206125730120BDE8B9
:10176000F08120684169C9434906D1D40020F6E7D9
:1017700070B516460D4604461EE02046FFF705FEEE
:1017800008B1012070BD681C16D0FEF71DFF801B3C
:10179000A84200D885B920684069C04300060BD52F
:1017A000002044F8300F20216173A073216941F0BB
:1017B000200121612073E4E720684069C0430006EE
:1017C000DBD4002070BD000000B585B00020029081
:1017D0000E48816941F008018161816901F00801C9
:1017E0000491816941F0040181618069694600F0DA
:1017F000040004902020009001200190022003901A
:101800000348FEF7DDFD05B000BD000000100240FA
:10181000000801400D4810B50B4901600C494160BA
:1018200000214FF480428160C0E90312416181616F
:10183000C1610162FEF7EAFE002803D0BDE8104056
:10184000FEF70BBD10BD0000005400401800002042
:10185000A08601000C4810B50A4901604FF4E1313F
:101860004160002181600C22C160C0E904128161E5
:10187000C161FFF7A9FC002803D0BDE81040FEF7C6
:10188000ECBC10BD003801406C0000200C4810B5C5
:101890000A4901604FF4E1314160002181600C226E
:1018A000C160C0E904128161C161FFF78DFC0028AD
:1018B00003D0BDE81040FEF7D0BC10BD004800408A
:1018C000B4000020FEE7FEE770477047FFF772B9EB
:1018D00030B58FB028216846FEF75FFC14210AA8B6
:1018E000FEF75BFC01210804CDE9001000240294FE
:1018F00002250491CDE907504FF4E01009906846A5
:10190000FFF7BEFA08B172B6FEE70F20CDE90A056F
:101910004FF48060CDE90C4002210AA80E94FFF735
:10192000D3F9002801D072B6FEE70FB030BD704782
:1019300001680C3151E8002F22F4907241E8002335
:10194000002BF5D10168143151E8002F22F001027B
:1019500041E80023002BF5D1016B012909D1016871
:101960000C3151E8002F22F0100241E80023002B37
:10197000F5D1202180F8421000210163704700005A
:1019800070B5044600680169E26821F440511143D2
:1019900001612169A0680843616908432168CA6838
:1019A00041F20C639A430243CA6020684169A2690C
:1019B00021F44071114341611E492068884202D1DF
:1019C000FFF728FA01E0FFF715FA00EBC00101EB81
:1019D0000012606864218000B2FBF0F3B3FBF1F306
:1019E0006FF018067343B2FBF0F5B2FBF0F605EBAF
:1019F0008305322303EB0515B5FBF1F5B6FBF1F6D4
:101A000005F0F00505EB0615B2FBF0F6B2FBF0F0C1
:101A1000B0FBF1F06FF01802504306EB800003EBCF
:101A20000010B0FBF1F0216800F00F00284488603E
:101A300070BD0000003801402DE9F8439846174674
:101A40000D460446089E24E0701C22D0FEF7BCFD23
:101A5000A0EB0800B0421AD8CEB12068C16849078F
:101A600017D5802D15D0402D13D00168C943090723
:101A70000FD401680025406800902046FFF758FF0A
:101A80000820606484F840500120BDE8F8830320FA
:101A9000FBE72068006835EA000004D00020B84267
:101AA000D2D00020F1E70120F9E7FEE73EB515A00E
:101AB00000F088F90121002000F040F91BA000F09F
:101AC00081F93220FEF7CCFB6946132000F014F9AF
:101AD0009DF800101BA000F075F901A91E2000F070
:101AE0000BF902A91F2000F007F99DF808209DF8C6
:101AF00004101AA042EA0124234600F063F92046AC
:101B00003EBD00000D0A3D3D3D3D3D3D3D3D3D207E
:101B1000B6C1C8A1BEE0C0EBBFAACABC203D3D3DD6
:101B20003D3D3D3D3D3D0D0A000000005BB4A5B7C5
:101B3000A25D20BFAACABCB2E2C1BF2E2E2E0D0AE2
:101B4000000000005BD7B4CCAC5D2030783133208E
:101B50003D203078253032580D0A00005BB6C1CAEE
:101B6000FD5D20307831453D3078253032582C20CD
:101B7000307831463D30782530325820A1FA20BEE9
:101B8000E0C0EB3D2564206D6D0D0A0008B53CA05A
:101B900000F018F94FF44870FEF762FB6946C02068
:101BA00000F0AAF89DF8001041A000F00BF9002108
:101BB000882000F0C3F80A20FEF752FB01218020A4
:101BC00000F0BCF80121FF2000F0B8F80021084621
:101BD00000F0B4F80021FF2000F0B0F800218020D0
:101BE00000F0ACF800210B2000F0A8F800210A203A
:101BF00000F0A4F80121032000F0A0F805216020E6
:101C000000F09CF82821502000F098F81021522074
:101C100000F094F80021612000F090F8002162208B
:101C200000F08CF80121442000F088F800214520C4
:101C300000F084F80021462000F080F800216420A4
:101C400000F07CF80021652000F078F805212920BB
:101C500000F074F805212A2000F070F804213120EA
:101C600000F06CF80121322000F068F84FF4967013
:101C7000FEF7F6FA15A000F0A5F8002008BD000058
:101C80000D0A3D3D3D3D3D3D3D3D3D20564C3533EE
:101C900031305820B9D9B7BDB1EAD7BCB3F5CABC09
:101CA000BBAF203D3D3D3D3D3D3D3D3D0D0A00006E
:101CB0005BB4ABB8D0C6F749445D203078433020E0
:101CC0003D203078253032580D0A00003D3D3D3D25
:101CD0003D3D3D3D3D20B3F5CABCBBAFCDEAB3C9E8
:101CE000A3ACBFAACABCB2E2BEE0A3A13D3D3D3D4C
:101CF0003D3D3D3D3D0D0A003EB505460C460E48B6
:101D0000FEF781FC202807D00B48FEF763FC0A2071
:101D1000FEF7A6FAFFF77EFD0121C8200094CDE969
:101D200001100B462A4652210348FEF733FD0028D6
:101D300000D001203EBD00001800002013B504466D
:101D400084B01348FEF75FFC202807D01048FEF748
:101D500041FC0A20FEF784FAFFF75CFD01214FF4F5
:101D6000FA7205A88DE807000B4622465221084862
:101D7000FEF73EFE030008D09DF81420214605A082
:101D800000F020F8012006B010BD0020FBE70000A5
:101D900018000020493243D0B4CAA7B0DC3A207200
:101DA00065673D3078253032582C20646174613D80
:101DB0003078253032582C207265743D25640D0A28
:101DC000000000000FB4054B10B503A9044A0298A7
:101DD00000F028F810BC5DF814FB00007D2200081C
:101DE000040000200907090E002804DB00F1E020B0
:101DF00080F80014704700F00F0000F1E02080F838
:101E0000141D704702E008C8121F08C1002AFAD149
:101E100070477047002001E001C1121F002AFBD16A
:101E2000704700002DE9FF4F8DB00F460546002694
:101E300006E025280BD0DDE90F1290476D1C761CBB
:101E400028780028F5D111B03046BDE8F08F002485
:101E5000A246A1460122E94900E0044315F8013FEA
:101E6000203B02FA03F00842F7D128782A2810D044
:101E70006FF02F022878A0F13001092914D80AEB5D
:101E80008A0102EB410144F0020400EB010A6D1CDF
:101E9000F0E701CF5FEA000A03D544F40054CAF129
:101EA000000A44F002046D1C28782E2817D115F87A
:101EB000010F44F004042A280ED06FF02F02287876
:101EC000A0F1300109290AD809EB890102EB41018F
:101ED00000EB01096D1CF2E757F8049B6D1C287894
:101EE0006C280FD006DC4C2817D068280DD06A2843
:101EF00014D104E0742810D07A280FD10DE044F4F6
:101F000000140AE044F4801401E044F440146978B9
:101F1000814202D104F580146D1C6D1C28786E2856
:101F20001ED00CDC632830D004DC00288BD058286D
:101F300011D19FE0642867D069280CD164E0732830
:101F40002DD004DC6F2872D0702804D194E075285D
:101F50006ED078286DD0DDE90F129047761C4BE1EA
:101F6000C4F30250022806D0032809D0042801CF68
:101F700009D0066040E101CFF117C0E900613BE103
:101F800001CF068038E1067036E117F8040B8DF8B2
:101F9000000000208DF80100EB46012003E057F817
:101FA00004BB4FF0FF3061074FF0000102D40DE099
:101FB00008F10101884649450FDA8045F8DB1BF836
:101FC00008100029F4D108E008F101018846814297
:101FD000FADB1BF808100029F6D1DDE90F23AAEB84
:101FE00008008146214600F031F9304400EB080634
:101FF00004E0DDE90F121BF8010B9047B8F101086E
:10200000F7D221464846F2E00A21C4F302524FF0CB
:10201000000B0891022A04D001CFC117032A09D06E
:102020000AE0FF1D27F00707F7E8020108E02CE0AF
:102030001EE01FE000B2C117042A01D140B2C1174F
:10204000021E71F1000206DA0023D0EB030063EBFD
:1020500001012D2202E0220504D52B228DF8242037
:10206000012203E0E20701D02022F7E7904653E087
:102070000A210BE0102109E010214FF0000B44F081
:1020800004044FF00809089103E008214FF0000B09
:102090000891C4F30252022A04D001CF0021032A7E
:1020A00006D006E0FF1D27F00707F7E8020103E06E
:1020B00080B2042A00D1C0B24FF0000822072BD50D
:1020C0002A78702A07D0DDF820C08CF0100C5CEA6A
:1020D0000B0C05D00EE040228DF82420012208E0F0
:1020E00050EA010306D030238DF824308DF82520E6
:1020F00002229046089B83F0080353EA0B030BD19E
:1021000050EA010201D1620706D530228DF8242061
:102110004FF00108A9F101092A78582A04D038A201
:102120000B9208AA0A920BE03AA2F9E75B46089ADA
:10213000FEF73EF80B9B9B5C0A9A521E0A921370A4
:1021400050EA0102F2D10A98ADEB000000F1200B39
:10215000600702D524F4803401E04FF00109D9452D
:1021600002DDA9EB0B0000E0002000EB0B01414475
:102170000890AAEB010AE00306D4DDE90F2321460B
:10218000504600F063F806444FF0000908E009A942
:1021900011F80900DDE90F12904709F10109761CD9
:1021A000C145F4DBE0030CD5DDE90F2321465046A1
:1021B00000F04CF8064404E0DDE90F1230209047AF
:1021C000761C0899481E08900029F5DC08E00A985A
:1021D0000A990078491C0A91DDE90F129047761C94
:1021E000BBF10001ABF1010BF1DC21465046DDE90A
:1021F0000F2300F019F806446D1C21E609280100A0
:10220000303132333435363738396162636465666C
:10221000000000003031323334353637383941422E
:1022200043444546000000002DE9F04104460025E6
:102230001E461746880404D405E039462020B047DE
:102240006D1C641EF9D52846BDE8F0812DE9F041EA
:10225000044600251E469046C80301D5302700E0FD
:102260002027880404D505E041463846B0476D1C58
:10227000641EF9D52846BDE8F081000013B564233B
:10228000012269460248FFF72FF800981CBD0000A4
:102290006C000020FEF796FCFFF71AFBFFF794FA9C
:1022A000FFF7B8FAFFF7D6FAFFF7F0FA13A0FFF737
:1022B00089FDFFF76BFC4FF4FA7470B11BA0FFF7B8
:1022C00081FD244D20212846FEF776F92046FDF7B2
:1022D000C7FF21A0FFF776FDF4E727A0FFF772FD07
:1022E000304D00BFFFF7E2FB288001462EA0FFF72C
:1022F00069FD2046FDF7B4FFF4E70000CFB5CDB38C
:10230000B3F5CABCBBAFCDEAB3C9A3A1BFAACABCCF
:10231000B3F5CABCBBAF564C3533313058B4ABB84B
:10232000D0C6F72E2E2E0D0A00000000564C353375
:10233000313058B3F5CABCBBAFCAA7B0DCA3A1BD4E
:10234000F8C8EBB4EDCEF3D1ADBBB72E2E2E0D0AEF
:102350000000000000080140B4EDCEF3D7B4CCACCF
:10236000A3BAB4ABB8D0C6F7B3F5CABCBBAFCAA763
:10237000B0DCA3A10D0A0000564C3533313058B300
:10238000F5CABCBBAFB3C9B9A6A3A1BDF8C8EBD60B
:10239000F7D1ADBBB7B6C1C8A1BEE0C0EB2E2E2EA3
:1023A0000D0A000000000020A1BED7EED6D5BDE189
:1023B000B9FBA1BF44697374616E63653A202564FB
:1023C000206D6D0D0A0000000102020304050607DE
:1023D00008090A0B0C0D0E0F101000000000000081
:1023E00000000102030406070809000000000102C2
:1023F000030400001424000800000020180000005E
:10240000041E00082C24000818000020E804000026
:10241000141E000800000000000000000100000081
:0C242000100000000000000000127A0014
:0400000508000131BD
:00000001FF
